:020000040800F2
:1000000000500020850C0008210C0008290C000875
:10001000310C0008390C0008410C000800000000F9
:10002000000000000000000000000000490C000873
:10003000550C000800000000610C00086D0C000861
:10004000CD0C0008CD0C0008CD0C0008CD0C00082C
:10005000CD0C0008CD0C0008CD0C0008CD0C00081C
:10006000CD0C0008CD0C0008CD0C0008CD0C00080C
:10007000CD0C0008CD0C0008CD0C0008CD0C0008FC
:10008000CD0C0008CD0C0008CD0C0008CD0C0008EC
:10009000CD0C0008CD0C0008CD0C0008CD0C0008DC
:1000A000CD0C0008CD0C0008CD0C0008CD0C0008CC
:1000B000CD0C0008CD0C0008CD0C0008CD0C0008BC
:1000C000CD0C0008CD0C0008CD0C0008CD0C0008AC
:1000D000CD0C0008CD0C0008CD0C0008CD0C00089C
:1000E000CD0C0008CD0C0008CD0C0008000000006D
:1000F0000000000000000000000000000000000000
:0C01000000000000000000005FF808F1A3
:10010C0010B5054C237833B9044B13B10448AFF345
:10011C0000800123237010BD0C00002000000000A3
:10012C00F01A000808B5034B1BB103490348AFF3A1
:10013C00008008BD0000000010000020F01A00082C
:10014C0080B596B000AF00F0BDFD00F0C5F900F031
:10015C00FFF901224FF40051824801F0A1F8824BC3
:10016C001B68002B03D0804B1B68042B73D17E4B78
:10017C001B6801337C4A136000237B6525E0002358
:10018C003B651CE00023FB6413E07848FB6C396D85
:10019C001A4692001A440B469B000B4499000B44E0
:1001AC001A447B6D1344002240F82320FB6C01336E
:1001BC00FB64FB6C042BE8DD3B6D01333B653B6D55
:1001CC00042BDFDD7B6D01337B657B6D042BD6DD72
:1001DC000023BB6431E000237B6428E000233B64F4
:1001EC001CE07B6C022B13D03B6C022B10D05F48B5
:1001FC003B6C796C1A4692001A440B469B000B44DC
:10020C0099000B441A44BB6C1344012240F8232080
:10021C003B6C01333B643B6C01333B643B6C042B08
:10022C00DFDD7B6C01337B647B6C01337B647B6C2B
:10023C00042BD3DDBB6C0133BB64BB6C042BCADD5C
:10024C0001214A4800F0F6F9474B1B68052B02D1F7
:10025C00454B01221A60444B1B68012B03D0424BC7
:10026C001B68032B66D1404B1B6801333E4A13605D
:10027C000023FB6325E00023BB631CE000237B63AE
:10028C0013E03A487B6BB96B1A4692001A440B4642
:10029C009B000B4499000B441A44FB6B1344002243
:1002AC0040F823207B6B01337B637B6B042BE8DDF5
:1002BC00BB6B0133BB63BB6B042BDFDDFB6B01330F
:1002CC00FB63FB6B042BD6DD00233B632BE001238C
:1002DC00FB6222E00123BB6216E02448BB6AF96A88
:1002EC001A4692001A440B469B000B4499000B448F
:1002FC001A443B6B1344012240F82320BB6A0133A0
:10030C00BB62BB6A0133BB62BB6A042BE5DDFB6AD3
:10031C000133FB62FB6A0133FB62FB6A042BD9DD00
:10032C003B6B01333B633B6B042BD0DD01210F484E
:10033C0000F080F90C4B1B68022B4DD10A4B1B684B
:10034C000133094A13600A4B1B680133084A1360D6
:10035C0000237B622EE000233B6225E00023FB613F
:10036C001CE000BF001001401C02002028000020EF
:10037C00200200205548FB69396A1A4692001A443B
:10038C000B469B000B4499000B441A447B6A1344A4
:10039C00002240F82320FB690133FB61FB69042B2D
:1003AC00E8DD3B6A01333B623B6A042BD6DD7B6A9A
:1003BC0001337B627B6A042BCDDD444B0122C3F8F5
:1003CC00F8200121414800F035F9414B1B68022B04
:1003DC0002D1404B06221A603E4B1B68062B6BD198
:1003EC003B4B1B6801333A4A13600023BB6125E089
:1003FC0000237B611CE000233B6113E033483B6925
:10040C0079691A4692001A440B469B000B449900DA
:10041C000B441A44BB691344002240F823203B6967
:10042C0001333B613B69042BE8DD7B6901337B6164
:10043C007B69042BDFDDBB690133BB61BB69042B1A
:10044C00D6DD0121214800F0F5F80023FB6025E002
:10045C000023BB601CE000237B6013E01B487B681F
:10046C00B9681A4692001A440B469B000B4499003B
:10047C000B441A44FB681344012240F823207B6888
:10048C0001337B607B68042BE8DDBB680133BB6008
:10049C00BB68042BDFDDFB680133FB60FB68042BBE
:1004AC00D6DD0121094800F0C5F8094B1B68042B67
:1004BC0002D1084B07221A60064B1B68072B7FF4EE
:1004CC0048AE0121582000F0D5F942E62800002062
:1004DC00200200201C02002080B590B000AF07F174
:1004EC00180328220021184601F0D0FA3B1D0022E7
:1004FC001A605A609A60DA601A610223BB610123A8
:10050C00BB621023FB6200237B6307F118031846C0
:10051C0000F0DEFE0346002B01D000F042FB0F235F
:10052C007B600023BB600023FB6000233B61002346
:10053C007B613B1D0021184601F04CF90346002B52
:10054C0001D000F02EFB00BF4037BD4680BD00003F
:10055C0080B588B000AF07F1100300221A605A6012
:10056C009A60DA60304B9B692F4A43F01003936119
:10057C002D4B9B6903F01003FB60FB682A4B9B69B6
:10058C00294A43F008039361274B9B6903F0080346
:10059C00BB60BB68244B9B69234A43F00403936103
:1005AC00214B9B6903F004037B607B6800224FF4B2
:1005BC0000511E4800F074FE00224EF2F8011C4857
:1005CC0000F06EFE4FF400533B6101237B6102236C
:1005DC00BB610223FB6107F110031946134800F0BD
:1005EC00DBFC4FF420433B6101237B610023BB61A7
:1005FC000223FB6107F1100319460D4800F0CCFCF7
:10060C0044F2F8033B6101237B610223BB610223AB
:10061C00FB6107F110031946054800F0BDFC00BF53
:10062C002037BD4680BD00BF0010024000100140C5
:10063C00000C014080B586B000AF786039600023B3
:10064C007B613BE000233B6132E00023FB601CE05C
:10065C000023BB6013E0FB68642202FB03F37A689F
:10066C00D118BA6813469B0013443A69134451F8E5
:10067C002330184600F02CF8BB680133BB60BB6814
:10068C00042BE8DDFB680133FB60FB68042BDFDD2A
:10069C0000F054F8386900F079F81E2000F074FB73
:1006AC00386900F0ADF800F05BF83B6901333B6151
:1006BC003B69042BC9DD7B6901337B617A693B683B
:1006CC009A42BFDB00BF00BF1837BD4680BD00009B
:1006DC0080B582B000AF78607B68002B12D100220D
:1006EC004FF40041144800F0DBFD00224FF40051A0
:1006FC00114800F0D5FD01224FF400510E4800F0D6
:10070C00CFFD14E07B68012B11D101224FF4004185
:10071C00094800F0C5FD00224FF40051064800F0D6
:10072C00BFFD01224FF40051034800F0B9FD00BF9A
:10073C000837BD4680BD00BF000C014080B500AF3E
:10074C0001224FF48041054800F0AAFD00224FF42D
:10075C008041024800F0A4FD00BF80BD000C0140A8
:10076C0080B582B000AF00237B6005E00020FFF76E
:10077C00AFFF7B6801337B607B68182BF6DDFFF7DE
:10078C00DDFF00BF0837BD4680BD000080B582B0DC
:10079C0000AF78607B68042B2AD801A252F823F0B2
:1007AC00C1070008CD070008D9070008E5070008B5
:1007BC00F107000801220821104800F071FD18E033
:1007CC00012210210D4800F06BFD12E001222021C6
:1007DC000A4800F065FD0CE001224021074800F0BA
:1007EC005FFD06E001228021044800F059FD00E085
:1007FC0000BF00BF0837BD4680BD00BF000C0140E4
:10080C0080B582B000AF78607B68042B2AD801A237
:10081C0052F823F035080008410800084D0800087C
:10082C00590800086508000800220821104800F04B
:10083C0037FD18E0002210210D4800F031FD12E0C8
:10084C00002220210A4800F02BFD0CE00022402160
:10085C00074800F025FD06E000228021044800F046
:10086C001FFD00E000BF00BF0837BD4680BD00BFC4
:10087C00000C014090B5ADF5097D00AF024607F5BF
:10088C000873A3F50873196007F50873A3F219230D
:10089C001A7007F50873A3F5057318464FF4FA732D
:1008AC001A46002101F0F2F80023C7F81C32A8E028
:1008BC000023C7F8183290E00023C7F8143282E006
:1008CC000023C7F8103275E007F50873A3F505701F
:1008DC00D7F81032D7F814121A4692001A440B4665
:1008EC009B000B4499000B441A44D7F8183213445C
:1008FC00002240F8232007F50873A3F219231B7874
:10090C00582B16D107F50873A3F50570D7F81032DC
:10091C00D7F81C121A4692001A440B469B000B4443
:10092C0099000B441A44D7F818321344012240F8AA
:10093C00232007F50873A3F219231B78592B16D122
:10094C0007F50873A3F50570D7F81C32D7F8141205
:10095C001A4692001A440B469B000B4499000B4418
:10096C001A44D7F818321344012240F8232007F513
:10097C000873A3F219231B785A2B16D107F50873A9
:10098C00A3F50570D7F81032D7F814121A46920056
:10099C001A440B469B000B4499000B441A44D7F89D
:1009AC001C321344012240F82320D7F810320133B3
:1009BC00C7F81032D7F81032042B85DDD7F8143273
:1009CC000133C7F81432D7F81432042B7FF778AF01
:1009DC00D7F818320133C7F81832D7F81832042B6D
:1009EC007FF76AAF07F50873A3F5087307F10C02DC
:1009FC0019681046FFF71EFED7F81C320133C7F8F2
:100A0C001C32D7F81C32042B7FF752AF0323C7F8E4
:100A1C000C32BBE00023C7F80832A3E00023C7F870
:100A2C00043295E00023C7F8003287E0D7F804328F
:100A3C00C3F10401D7F80032C3F10403D7F808223C
:100A4C00C2F1040407F50872A2F505701A4692006B
:100A5C001A440B469B000B4499000B44134423444B
:100A6C00002240F8232007F50873A3F219231B7802
:100A7C00582B1AD1D7F80032C3F10403D7F8082247
:100A8C00C2F1040407F50872A2F50570D7F80C1230
:100A9C001A4692001A440B469B000B4499000B44D7
:100AAC0013442344012240F8232007F50873A3F2D2
:100ABC0019231B78592B1AD1D7F80432C3F104012E
:100ACC00D7F80832C3F1040407F50873A3F50570D1
:100ADC00D7F80C321A4692001A440B469B000B4472
:100AEC0099000B4413442344012240F8232007F5BA
:100AFC000873A3F219231B785A2B1AD1D7F8043296
:100B0C00C3F10401D7F80032C3F1040307F50872EE
:100B1C00A2F505701A4692001A440B469B000B4432
:100B2C0099000B441A44D7F80C321344012240F8B4
:100B3C002320D7F800320133C7F80032D7F800323F
:100B4C00042B7FF773AFD7F804320133C7F80432A4
:100B5C00D7F80432042B7FF765AFD7F8083201338E
:100B6C00C7F80832D7F80832042B7FF757AF07F5D0
:100B7C000873A3F5087307F10C0219681046FFF708
:100B8C0059FDD7F80C32013BC7F80C32D7F80C32B0
:100B9C00002BBFF63FAF00BF00BF07F50977BD467E
:100BAC0090BD80B400AF72B600BF00BFFDE700007F
:100BBC0080B485B000AF154B9B69144A43F0010318
:100BCC009361124B9B6903F00103BB60BB680F4B35
:100BDC00DB690E4A43F08053D3610C4BDB6903F0A5
:100BEC0080537B607B680A4B5B68FB60FB6823F07F
:100BFC00E063FB60FB6843F00073FB60044AFB6836
:100C0C00536000BF1437BD4680BC704700100240D3
:100C1C000000014080B400AF00BFFDE780B400AF1E
:100C2C0000BFFDE780B400AF00BFFDE780B400AFAC
:100C3C0000BFFDE780B400AF00BFFDE780B400AF9C
:100C4C0000BFBD4680BC704780B400AF00BFBD463E
:100C5C0080BC704780B400AF00BFBD4680BC7047FD
:100C6C0080B500AF00F074F800BF80BD80B400AF59
:100C7C0000BFBD4680BC7047FFF7F8FF0B480C491E
:100C8C000C4A002302E0D458C4500433C4188C42DC
:100C9C00F9D3094A094C002301E013600432A24243
:100CAC00FBD300F0FBFEFFF74BFA7047000000206F
:100CBC000C000020341B00080C000020280200202F
:100CCC00FEE7000080B500AF084B1B68074A43F0F5
:100CDC0010031360032000F02BF90F2000F008F82C
:100CEC00FFF766FF0023184680BD00BF00200240BE
:100CFC0080B582B000AF7860124B1A68124B1B782B
:100D0C0019464FF47A73B3FBF1F3B2FBF3F31846C5
:100D1C0000F035F90346002B01D001230EE07B686F
:100D2C000F2B0AD8002279684FF0FF3000F00BF936
:100D3C00064A7B681360002300E00123184608373D
:100D4C00BD4680BD000000200800002004000020EB
:100D5C0080B400AF054B1B781A46054B1B68134437
:100D6C00034A136000BFBD4680BC704708000020DA
:100D7C002402002080B400AF024B1B681846BD460D
:100D8C0080BC70472402002080B584B000AF78602E
:100D9C00FFF7F0FFB8607B68FB60FB68B3F1FF3FC7
:100DAC0005D00A4B1B781A46FB681344FB6000BF46
:100DBC00FFF7E0FF0246BB68D31AFA689A42F7D8ED
:100DCC0000BF00BF1037BD4680BD00BF080000202B
:100DDC0080B485B000AF78607B6803F00703FB60DC
:100DEC000C4BDB68BB60BA684FF6FF031340BB606B
:100DFC00FB681A02BB68134343F0BF6343F4003330
:100E0C00BB60044ABB68D36000BF1437BD4680BCCE
:100E1C00704700BF00ED00E080B400AF044BDB680E
:100E2C001B0A03F007031846BD4680BC704700BF81
:100E3C0000ED00E080B483B000AF03463960FB7175
:100E4C0097F90730002B0ADB3B68DAB20C4997F9AB
:100E5C0007301201D2B20B4483F800230AE03B683E
:100E6C00DAB20849FB7903F00F03043B1201D2B24A
:100E7C000B441A7600BF0C37BD4680BC704700BFD0
:100E8C0000E100E000ED00E080B489B000AFF86054
:100E9C00B9607A60FB6803F00703FB61FB69C3F17F
:100EAC000703042B28BF0423BB61FB690433062B07
:100EBC0002D9FB69033B00E000237B614FF0FF325A
:100ECC00BB6902FA03F3DA43BB681A407B699A40A8
:100EDC004FF0FF317B6901FA03F3D9437B680B4078
:100EEC00134318462437BD4680BC704780B582B08A
:100EFC0000AF78607B68013BB3F1807F01D30123A5
:100F0C000FE00A4A7B68013B53600F214FF0FF3022
:100F1C00FFF790FF054B00229A60044B07221A60E2
:100F2C00002318460837BD4680BD00BF10E000E026
:100F3C0080B582B000AF78607868FFF749FF00BFDA
:100F4C000837BD4680BD80B586B000AF0346B9609A
:100F5C007A60FB7300237B61FFF75EFF78617A6830
:100F6C00B9687869FFF790FF024697F90F30114680
:100F7C001846FFF75FFF00BF1837BD4680BD80B530
:100F8C0082B000AF78607868FFF7B0FF0346184670
:100F9C000837BD4680BD000080B48BB000AF7860D0
:100FAC00396000237B6200233B6269E101227B6A8A
:100FBC0002FA03F3FB613B681B68FA691340BB61DF
:100FCC00BA69FB699A4240F058813B685B689A4A5F
:100FDC0093425ED0984A934275D8984A934258D01F
:100FEC00964A93426FD8964A934252D0944A93426F
:100FFC0069D8944A93424CD0924A934263D8924A0D
:10100C00934246D0904A93425DD8122B2AD8122B89
:10101C0059D801A252F823F09F100008791000084B
:10102C008B100008CD100008D3100008D310000856
:10103C00D3100008D3100008D3100008D3100008F8
:10104C00D3100008D3100008D3100008D3100008E8
:10105C00D3100008D3100008D3100008811000082A
:10106C0095100008794A934213D02CE03B68DB685A
:10107C003B6229E03B68DB6804333B6224E03B685D
:10108C00DB6808333B621FE03B68DB680C333B6278
:10109C001AE03B689B68002B02D104233B6213E0EF
:1010AC003B689B68012B05D108233B627B68FA697E
:1010BC001A6109E008233B627B68FA695A6103E014
:1010CC0000233B6200E000BFBB69FF2B01D87B68AB
:1010DC0001E07B6804337B61BB69FF2B02D87B6A20
:1010EC009B0002E07B6A083B9B003B617B691A68B2
:1010FC000F213B6901FA03F3DB431A40396A3B6960
:10110C0001FA03F31A437B691A603B685B6803F0CE
:10111C008053002B00F0B1804D4B9B694C4A43F03F
:10112C00010393614A4B9B6903F00103BB60BB68ED
:10113C00484A7B6A9B08023352F82330FB607B6A77
:10114C0003F003039B000F2202FA03F3DB43FA685C
:10115C001340FB607B68404A934213D07B683F4A44
:10116C0093420DD07B683E4A934207D07B683D4A40
:10117C00934201D1032306E0042304E0022302E09E
:10118C00012300E000237A6A02F0030292009340EC
:10119C00FA681343FB602F497B6A9B080233FA6899
:1011AC0041F823203B685B6803F48013002B06D0C6
:1011BC002D4B9A682C49BB6913438B6006E02A4B74
:1011CC009A68BB69DB43284913408B603B685B68BA
:1011DC0003F40013002B06D0234BDA682249BB69B9
:1011EC001343CB6006E0204BDA68BB69DB431E4936
:1011FC001340CB603B685B6803F40033002B06D0D4
:10120C00194B5A681849BB6913434B6006E0164BDF
:10121C005A68BB69DB43144913404B603B685B68FD
:10122C0003F48033002B21D00F4B1A680E49BB6995
:10123C0013430B6021E000BF00003210000031109E
:10124C0000002210000021100000121000001110EC
:10125C00001002400000014000080140000C014059
:10126C000010014000140140000401400B4B1A68AF
:10127C00BB69DB43094913400B607B6A01337B621A
:10128C003B681A687B6A22FA03F3002B7FF48EAE5C
:10129C0000BF00BF2C37BD4680BC70470004014026
:1012AC0080B483B000AF78600B467B8013467B70B4
:1012BC007B78002B03D07A887B681A6103E07B88EB
:1012CC001A047B681A6100BF0C37BD4680BC70479E
:1012DC0080B586B000AF78607B68002B01D101230C
:1012EC0072E27B681B6803F00103002B00F087801F
:1012FC00924B5B6803F00C03042B0CD08F4B5B6898
:10130C0003F00C03082B12D18C4B5B6803F4803375
:10131C00B3F5803F0BD1894B1B6803F40033002BD2
:10132C006CD07B685B68002B68D101234CE27B6836
:10133C005B68B3F5803F06D1804B1B687F4A43F452
:10134C00803313602EE07B685B68002B0CD17B4BE9
:10135C001B687A4A23F480331360784B1B68774AF6
:10136C0023F4802313601DE07B685B68B3F5A02F2A
:10137C000CD1724B1B68714A43F4802313606F4B82
:10138C001B686E4A43F4803313600BE06B4B1B6895
:10139C006A4A23F480331360684B1B68674A23F452
:1013AC00802313607B685B68002B13D0FFF7E2FC93
:1013BC00386108E0FFF7DEFC02463B69D31A642B68
:1013CC0001D9032300E25D4B1B6803F40033002BAF
:1013DC00F0D014E0FFF7CEFC386108E0FFF7CAFC50
:1013EC0002463B69D31A642B01D90323ECE1534B1E
:1013FC001B6803F40033002BF0D100E000BF7B68C6
:10140C001B6803F00203002B63D04C4B5B6803F0AA
:10141C000C03002B0BD0494B5B6803F00C03082B1F
:10142C001CD1464B5B6803F48033002B16D1434B25
:10143C001B6803F00203002B05D07B681B69012B92
:10144C0001D00123C0E13D4B1B6823F0F8027B68FF
:10145C005B69DB00394913430B603AE07B681B691D
:10146C00002B20D0364B01221A60FFF783FC386129
:10147C0008E0FFF77FFC02463B69D31A022B01D927
:10148C000323A1E12D4B1B6803F00203002BF0D0CA
:10149C002A4B1B6823F0F8027B685B69DB00274949
:1014AC0013430B6015E0264B00221A60FFF762FC19
:1014BC00386108E0FFF75EFC02463B69D31A022B49
:1014CC0001D9032380E11D4B1B6803F00203002BA1
:1014DC00F0D17B681B6803F00803002B3AD07B68C3
:1014EC009B69002B19D0174B01221A60FFF742FCA5
:1014FC00386108E0FFF73EFC02463B69D31A022B29
:10150C0001D9032360E10D4B5B6A03F00203002B4E
:10151C00F0D0012000F09CFA1CE00A4B00221A606B
:10152C00FFF728FC38610FE0FFF724FC02463B690B
:10153C00D31A022B08D9032346E100BF0010024046
:10154C000000424280044242924B5B6A03F0020369
:10155C00002BE9D17B681B6803F00403002B00F01F
:10156C00A6800023FB758B4BDB6903F08053002BAB
:10157C000DD1884BDB69874A43F08053D361854B8F
:10158C00DB6903F08053BB60BB680123FB75824BA6
:10159C001B6803F48073002B18D17F4B1B687E4AA9
:1015AC0043F480731360FFF7E5FB386108E0FFF745
:1015BC00E1FB02463B69D31A642B01D9032303E1F7
:1015CC00754B1B6803F48073002BF0D07B68DB68D1
:1015DC00012B06D16F4B1B6A6E4A43F00103136259
:1015EC002DE07B68DB68002B0CD16A4B1B6A694AC7
:1015FC0023F001031362674B1B6A664A23F0040352
:10160C0013621CE07B68DB68052B0CD1614B1B6AF9
:10161C00604A43F0040313625E4B1B6A5D4A43F05D
:10162C00010313620BE05B4B1B6A5A4A23F0010364
:10163C001362584B1B6A574A23F0040313627B68EE
:10164C00DB68002B15D0FFF795FB38610AE0FFF73C
:10165C0091FB02463B69D31A41F28832934201D97D
:10166C000323B1E04B4B1B6A03F00203002BEED0BB
:10167C0014E0FFF77FFB38610AE0FFF77BFB0246C3
:10168C003B69D31A41F28832934201D903239BE080
:10169C00404B1B6A03F00203002BEED1FB7D012BA8
:1016AC0005D13C4BDB693B4A23F08053D3617B680B
:1016BC00DB69002B00F08780364B5B6803F00C0372
:1016CC00082B61D07B68DB69022B46D1334B00229F
:1016DC001A60FFF74FFB386108E0FFF74BFB02463F
:1016EC003B69D31A022B01D903236DE0294B1B68EC
:1016FC0003F00073002BF0D17B681B6AB3F5803FBD
:10170C0008D1244B5B6823F400327B689B68214929
:10171C0013434B601F4B5B6823F474127B68196A8C
:10172C007B685B6A0B431B4913434B601B4B0122C9
:10173C001A60FFF71FFB386108E0FFF71BFB02463E
:10174C003B69D31A022B01D903233DE0114B1B68D3
:10175C0003F00073002BF0D035E0104B00221A6020
:10176C00FFF708FB386108E0FFF704FB02463B6912
:10177C00D31A022B01D9032326E0064B1B6803F076
:10178C000073002BF0D11EE07B68DB69012B07D1C5
:10179C00012319E00010024000700040600042423A
:1017AC000B4B5B68FB60FB6803F480327B681B6A45
:1017BC009A4206D1FB6803F470127B685B6A9A420A
:1017CC0001D0012300E0002318461837BD4680BD28
:1017DC000010024080B584B000AF786039607B683F
:1017EC00002B01D10123D0E06A4B1B6803F00703E7
:1017FC003A689A4210D9674B1B6823F00702654977
:10180C003B6813430B60634B1B6803F007033A6898
:10181C009A4201D00123B8E07B681B6803F00203F5
:10182C00002B20D07B681B6803F00403002B05D031
:10183C00594B5B68584A43F4E06353607B681B6800
:10184C0003F00803002B05D0534B5B68524A43F45A
:10185C0060535360504B5B6823F0F0027B689B68CD
:10186C004D4913434B607B681B6803F00103002B4D
:10187C0040D07B685B68012B07D1474B1B6803F496
:10188C000033002B15D101237FE07B685B68022BB2
:10189C0007D1414B1B6803F00073002B09D10123C6
:1018AC0073E03D4B1B6803F00203002B01D10123B5
:1018BC006BE0394B5B6823F003027B685B6836494D
:1018CC0013434B60FFF756FAF8600AE0FFF752FA41
:1018DC000246FB68D31A41F28832934201D90323A2
:1018EC0053E02D4B5B6803F00C027B685B689B003C
:1018FC009A42EBD1274B1B6803F007033A689A42D4
:10190C0010D2244B1B6823F0070222493B68134377
:10191C000B60204B1B6803F007033A689A4201D016
:10192C00012332E07B681B6803F00403002B08D012
:10193C00194B5B6823F4E0627B68DB681649134340
:10194C004B607B681B6803F00803002B09D0124B1B
:10195C005B6823F460527B681B69DB000E49134300
:10196C004B6000F021F802460B4B5B681B0903F03F
:10197C000F030A49CB5C22FA03F3094A1360094BA3
:10198C001B681846FFF7B4F9002318461037BD46FC
:10199C0080BD00BF0020024000100240081B000860
:1019AC00000000200400002080B487B000AF0023AA
:1019BC00FB600023BB6000237B6100237B60002362
:1019CC003B611E4B5B68FB60FB6803F00C03042B54
:1019DC0002D0082B03D027E0194B3B6127E0FB68B2
:1019EC009B0C03F00F03174AD35C7B60FB6803F47A
:1019FC008033002B10D0114B5B685B0C03F00103A0
:101A0C00114AD35CBB607B680D4A03FB02F2BB68D6
:101A1C00B2FBF3F37B6104E07B680C4A02FB03F33B
:101A2C007B617B693B6102E0054B3B6100BF3B691D
:101A3C0018461C37BD4680BC704700BF00100240E2
:101A4C0000127A00181B0008281B000800093D0032
:101A5C0080B485B000AF78600A4B1B680A4AA2FBC1
:101A6C0003235B0A7A6802FB03F3FB6000BFFB688D
:101A7C005A1EFA60002BF9D100BF00BF1437BD46C7
:101A8C0080BC704700000020D34D62100346024416
:101A9C00934200D1704703F8011BF9E770B500269B
:101AAC000C4D0D4C641BA410A64209D100F01AF881
:101ABC0000260A4D0A4C641BA410A64205D170BD29
:101ACC0055F8043B98470136EEE755F8043B984728
:101ADC000136F2E72C1B00082C1B00082C1B0008FD
:101AEC00301B0008F8B500BFF8BC08BC9E46704718
:0C1AFC00F8B500BFF8BC08BC9E4670475F
:101B080000000000000000000102030406070809A5
:101B180002030405060708090A0B0C0D0E0F101026
:041B280001020000B6
:041B2C00310100087B
:041B30000D0100089B
:0C1B340000127A00100000000100000008
:0400000508000C855E
:00000001FF
